:020000020000FC
:10000000C0F9A4B0999282F880908883C6A1868EA8
:100010000FEF0DBF08E00EBF05E005BD002706BDD0
:100020000FE104B90FEF0AB938983998409A419A0C
:1000300022273327442706B10370502F662700C0BC
:1000400005B300FF12C0A89A43954A3019F444271B
:1000500023952F70022F062B05B9231731F470E179
:1000600067272227022F062B05B906B10370051753
:1000700009F4E6CF702F1ED006B10370071701F701
:1000800070FF0E944E0071FF0E945400572FE0E065
:10009000F0E0832FE80F04910BB9D2CF3F3011F07D
:1000A0003395089533270895303011F03A95089527
:1000B0003FE0089504E688EC8A95F1F70A95D9F7B0
:0200C0000895A1
:00000001FF
